{
	"contracts/SimpleStorage.sol": {
		"SimpleStorage": {
			"abi": [
				{
					"inputs": [],
					"name": "brothersFavoriteNumber",
					"outputs": [
						{
							"internalType": "uint256",
							"name": "",
							"type": "uint256"
						}
					],
					"stateMutability": "view",
					"type": "function"
				},
				{
					"inputs": [],
					"name": "favoriteNumber",
					"outputs": [
						{
							"internalType": "uint256",
							"name": "",
							"type": "uint256"
						}
					],
					"stateMutability": "view",
					"type": "function"
				},
				{
					"inputs": [],
					"name": "person1",
					"outputs": [
						{
							"internalType": "uint256",
							"name": "favoriteNumber",
							"type": "uint256"
						},
						{
							"internalType": "string",
							"name": "name",
							"type": "string"
						}
					],
					"stateMutability": "view",
					"type": "function"
				},
				{
					"inputs": [],
					"name": "person2",
					"outputs": [
						{
							"internalType": "uint256",
							"name": "favoriteNumber",
							"type": "uint256"
						},
						{
							"internalType": "string",
							"name": "name",
							"type": "string"
						}
					],
					"stateMutability": "view",
					"type": "function"
				},
				{
					"inputs": [],
					"name": "person3",
					"outputs": [
						{
							"internalType": "uint256",
							"name": "favoriteNumber",
							"type": "uint256"
						},
						{
							"internalType": "string",
							"name": "name",
							"type": "string"
						}
					],
					"stateMutability": "view",
					"type": "function"
				},
				{
					"inputs": [],
					"name": "person4",
					"outputs": [
						{
							"internalType": "uint256",
							"name": "favoriteNumber",
							"type": "uint256"
						},
						{
							"internalType": "string",
							"name": "name",
							"type": "string"
						}
					],
					"stateMutability": "view",
					"type": "function"
				},
				{
					"inputs": [],
					"name": "retrieve",
					"outputs": [
						{
							"internalType": "uint256",
							"name": "",
							"type": "uint256"
						}
					],
					"stateMutability": "view",
					"type": "function"
				},
				{
					"inputs": [
						{
							"internalType": "uint256",
							"name": "_favoriteNumber",
							"type": "uint256"
						}
					],
					"name": "store",
					"outputs": [],
					"stateMutability": "nonpayable",
					"type": "function"
				}
			],
			"devdoc": {
				"kind": "dev",
				"methods": {},
				"version": 1
			},
			"evm": {
				"assembly": "    /* \"contracts/SimpleStorage.sol\":119:1748  contract SimpleStorage {... */\n  mstore(0x40, 0x80)\n    /* \"contracts/SimpleStorage.sol\":808:852  People({ favoriteNumber: 8, name: 'Mirko' }) */\n  mload(0x40)\n  dup1\n  0x40\n  add\n  0x40\n  mstore\n  dup1\n    /* \"contracts/SimpleStorage.sol\":833:834  8 */\n  0x08\n    /* \"contracts/SimpleStorage.sol\":808:852  People({ favoriteNumber: 8, name: 'Mirko' }) */\n  dup2\n  mstore\n  0x20\n  add\n  mload(0x40)\n  dup1\n  0x40\n  add\n  0x40\n  mstore\n  dup1\n  0x05\n  dup2\n  mstore\n  0x20\n  add\n  0x4d69726b6f000000000000000000000000000000000000000000000000000000\n  dup2\n  mstore\n  pop\n  dup2\n  mstore\n  pop\n    /* \"contracts/SimpleStorage.sol\":784:852  People public person1 = People({ favoriteNumber: 8, name: 'Mirko' }) */\n  0x02\n  0x00\n  dup3\n  add\n  mload\n  dup2\n  0x00\n  add\n  sstore\n  0x20\n  dup3\n  add\n  mload\n  dup2\n  0x01\n  add\n  swap1\n  dup1\n  mload\n  swap1\n  0x20\n  add\n  swap1\n  tag_1\n  swap3\n  swap2\n  swap1\n  tag_2\n  jump\t// in\ntag_1:\n  pop\n  pop\n  pop\n    /* \"contracts/SimpleStorage.sol\":882:927  People({ favoriteNumber: 3, name: 'Nikola' }) */\n  mload(0x40)\n  dup1\n  0x40\n  add\n  0x40\n  mstore\n  dup1\n    /* \"contracts/SimpleStorage.sol\":907:908  3 */\n  0x03\n    /* \"contracts/SimpleStorage.sol\":882:927  People({ favoriteNumber: 3, name: 'Nikola' }) */\n  dup2\n  mstore\n  0x20\n  add\n  mload(0x40)\n  dup1\n  0x40\n  add\n  0x40\n  mstore\n  dup1\n  0x06\n  dup2\n  mstore\n  0x20\n  add\n  0x4e696b6f6c610000000000000000000000000000000000000000000000000000\n  dup2\n  mstore\n  pop\n  dup2\n  mstore\n  pop\n    /* \"contracts/SimpleStorage.sol\":858:927  People public person2 = People({ favoriteNumber: 3, name: 'Nikola' }) */\n  0x04\n  0x00\n  dup3\n  add\n  mload\n  dup2\n  0x00\n  add\n  sstore\n  0x20\n  dup3\n  add\n  mload\n  dup2\n  0x01\n  add\n  swap1\n  dup1\n  mload\n  swap1\n  0x20\n  add\n  swap1\n  tag_3\n  swap3\n  swap2\n  swap1\n  tag_2\n  jump\t// in\ntag_3:\n  pop\n  pop\n  pop\n    /* \"contracts/SimpleStorage.sol\":957:1001  People({ favoriteNumber: 5, name: 'Ivana' }) */\n  mload(0x40)\n  dup1\n  0x40\n  add\n  0x40\n  mstore\n  dup1\n    /* \"contracts/SimpleStorage.sol\":982:983  5 */\n  0x05\n    /* \"contracts/SimpleStorage.sol\":957:1001  People({ favoriteNumber: 5, name: 'Ivana' }) */\n  dup2\n  mstore\n  0x20\n  add\n  mload(0x40)\n  dup1\n  0x40\n  add\n  0x40\n  mstore\n  dup1\n  0x05\n  dup2\n  mstore\n  0x20\n  add\n  0x4976616e61000000000000000000000000000000000000000000000000000000\n  dup2\n  mstore\n  pop\n  dup2\n  mstore\n  pop\n    /* \"contracts/SimpleStorage.sol\":933:1001  People public person3 = People({ favoriteNumber: 5, name: 'Ivana' }) */\n  0x06\n  0x00\n  dup3\n  add\n  mload\n  dup2\n  0x00\n  add\n  sstore\n  0x20\n  dup3\n  add\n  mload\n  dup2\n  0x01\n  add\n  swap1\n  dup1\n  mload\n  swap1\n  0x20\n  add\n  swap1\n  tag_4\n  swap3\n  swap2\n  swap1\n  tag_2\n  jump\t// in\ntag_4:\n  pop\n  pop\n  pop\n    /* \"contracts/SimpleStorage.sol\":1031:1077  People({ favoriteNumber: 7, name: 'Teodora' }) */\n  mload(0x40)\n  dup1\n  0x40\n  add\n  0x40\n  mstore\n  dup1\n    /* \"contracts/SimpleStorage.sol\":1056:1057  7 */\n  0x07\n    /* \"contracts/SimpleStorage.sol\":1031:1077  People({ favoriteNumber: 7, name: 'Teodora' }) */\n  dup2\n  mstore\n  0x20\n  add\n  mload(0x40)\n  dup1\n  0x40\n  add\n  0x40\n  mstore\n  dup1\n  0x07\n  dup2\n  mstore\n  0x20\n  add\n  0x54656f646f726100000000000000000000000000000000000000000000000000\n  dup2\n  mstore\n  pop\n  dup2\n  mstore\n  pop\n    /* \"contracts/SimpleStorage.sol\":1007:1077  People public person4 = People({ favoriteNumber: 7, name: 'Teodora' }) */\n  0x08\n  0x00\n  dup3\n  add\n  mload\n  dup2\n  0x00\n  add\n  sstore\n  0x20\n  dup3\n  add\n  mload\n  dup2\n  0x01\n  add\n  swap1\n  dup1\n  mload\n  swap1\n  0x20\n  add\n  swap1\n  tag_5\n  swap3\n  swap2\n  swap1\n  tag_2\n  jump\t// in\ntag_5:\n  pop\n  pop\n  pop\n    /* \"contracts/SimpleStorage.sol\":119:1748  contract SimpleStorage {... */\n  callvalue\n  dup1\n  iszero\n  tag_6\n  jumpi\n  0x00\n  dup1\n  revert\ntag_6:\n  pop\n  jump(tag_7)\ntag_2:\n  dup3\n  dup1\n  sload\n  tag_8\n  swap1\n  tag_9\n  jump\t// in\ntag_8:\n  swap1\n  0x00\n  mstore\n  keccak256(0x00, 0x20)\n  swap1\n  0x1f\n  add\n  0x20\n  swap1\n  div\n  dup2\n  add\n  swap3\n  dup3\n  tag_11\n  jumpi\n  0x00\n  dup6\n  sstore\n  jump(tag_10)\ntag_11:\n  dup3\n  0x1f\n  lt\n  tag_12\n  jumpi\n  dup1\n  mload\n  not(0xff)\n  and\n  dup4\n  dup1\n  add\n  or\n  dup6\n  sstore\n  jump(tag_10)\ntag_12:\n  dup3\n  dup1\n  add\n  0x01\n  add\n  dup6\n  sstore\n  dup3\n  iszero\n  tag_10\n  jumpi\n  swap2\n  dup3\n  add\ntag_13:\n  dup3\n  dup2\n  gt\n  iszero\n  tag_14\n  jumpi\n  dup3\n  mload\n  dup3\n  sstore\n  swap2\n  0x20\n  add\n  swap2\n  swap1\n  0x01\n  add\n  swap1\n  jump(tag_13)\ntag_14:\ntag_10:\n  pop\n  swap1\n  pop\n  tag_15\n  swap2\n  swap1\n  tag_16\n  jump\t// in\ntag_15:\n  pop\n  swap1\n  jump\t// out\ntag_16:\ntag_17:\n  dup1\n  dup3\n  gt\n  iszero\n  tag_18\n  jumpi\n  0x00\n  dup2\n  0x00\n  swap1\n  sstore\n  pop\n  0x01\n  add\n  jump(tag_17)\ntag_18:\n  pop\n  swap1\n  jump\t// out\n    /* \"#utility.yul\":7:187   */\ntag_19:\n    /* \"#utility.yul\":55:132   */\n  0x4e487b7100000000000000000000000000000000000000000000000000000000\n    /* \"#utility.yul\":52:53   */\n  0x00\n    /* \"#utility.yul\":45:133   */\n  mstore\n    /* \"#utility.yul\":152:156   */\n  0x22\n    /* \"#utility.yul\":149:150   */\n  0x04\n    /* \"#utility.yul\":142:157   */\n  mstore\n    /* \"#utility.yul\":176:180   */\n  0x24\n    /* \"#utility.yul\":173:174   */\n  0x00\n    /* \"#utility.yul\":166:181   */\n  revert\n    /* \"#utility.yul\":193:513   */\ntag_9:\n    /* \"#utility.yul\":237:243   */\n  0x00\n    /* \"#utility.yul\":274:275   */\n  0x02\n    /* \"#utility.yul\":268:272   */\n  dup3\n    /* \"#utility.yul\":264:276   */\n  div\n    /* \"#utility.yul\":254:276   */\n  swap1\n  pop\n    /* \"#utility.yul\":321:322   */\n  0x01\n    /* \"#utility.yul\":315:319   */\n  dup3\n    /* \"#utility.yul\":311:323   */\n  and\n    /* \"#utility.yul\":342:360   */\n  dup1\n    /* \"#utility.yul\":332:413   */\n  tag_23\n  jumpi\n    /* \"#utility.yul\":398:402   */\n  0x7f\n    /* \"#utility.yul\":390:396   */\n  dup3\n    /* \"#utility.yul\":386:403   */\n  and\n    /* \"#utility.yul\":376:403   */\n  swap2\n  pop\n    /* \"#utility.yul\":332:413   */\ntag_23:\n    /* \"#utility.yul\":460:462   */\n  0x20\n    /* \"#utility.yul\":452:458   */\n  dup3\n    /* \"#utility.yul\":449:463   */\n  lt\n    /* \"#utility.yul\":429:447   */\n  dup2\n    /* \"#utility.yul\":426:464   */\n  eq\n    /* \"#utility.yul\":423:507   */\n  iszero\n  tag_24\n  jumpi\n    /* \"#utility.yul\":479:497   */\n  tag_25\n  tag_19\n  jump\t// in\ntag_25:\n    /* \"#utility.yul\":423:507   */\ntag_24:\n    /* \"#utility.yul\":244:513   */\n  pop\n    /* \"#utility.yul\":193:513   */\n  swap2\n  swap1\n  pop\n  jump\t// out\n    /* \"contracts/SimpleStorage.sol\":119:1748  contract SimpleStorage {... */\ntag_7:\n  dataSize(sub_0)\n  dup1\n  dataOffset(sub_0)\n  0x00\n  codecopy\n  0x00\n  return\nstop\n\nsub_0: assembly {\n        /* \"contracts/SimpleStorage.sol\":119:1748  contract SimpleStorage {... */\n      mstore(0x40, 0x80)\n      callvalue\n      dup1\n      iszero\n      tag_1\n      jumpi\n      0x00\n      dup1\n      revert\n    tag_1:\n      pop\n      jumpi(tag_2, lt(calldatasize, 0x04))\n      shr(0xe0, calldataload(0x00))\n      dup1\n      0x6057361d\n      gt\n      tag_11\n      jumpi\n      dup1\n      0x6057361d\n      eq\n      tag_7\n      jumpi\n      dup1\n      0x61efd9a7\n      eq\n      tag_8\n      jumpi\n      dup1\n      0x66993d66\n      eq\n      tag_9\n      jumpi\n      dup1\n      0xa210cf3f\n      eq\n      tag_10\n      jumpi\n      jump(tag_2)\n    tag_11:\n      dup1\n      0x20b2d87f\n      eq\n      tag_3\n      jumpi\n      dup1\n      0x2e64cec1\n      eq\n      tag_4\n      jumpi\n      dup1\n      0x46cb59c2\n      eq\n      tag_5\n      jumpi\n      dup1\n      0x471f7cdf\n      eq\n      tag_6\n      jumpi\n    tag_2:\n      0x00\n      dup1\n      revert\n        /* \"contracts/SimpleStorage.sol\":933:1001  People public person3 = People({ favoriteNumber: 5, name: 'Ivana' }) */\n    tag_3:\n      tag_12\n      tag_13\n      jump\t// in\n    tag_12:\n      mload(0x40)\n      tag_14\n      swap3\n      swap2\n      swap1\n      tag_15\n      jump\t// in\n    tag_14:\n      mload(0x40)\n      dup1\n      swap2\n      sub\n      swap1\n      return\n        /* \"contracts/SimpleStorage.sol\":1570:1657  function retrieve() public view returns(uint256) {... */\n    tag_4:\n      tag_16\n      tag_17\n      jump\t// in\n    tag_16:\n      mload(0x40)\n      tag_18\n      swap2\n      swap1\n      tag_19\n      jump\t// in\n    tag_18:\n      mload(0x40)\n      dup1\n      swap2\n      sub\n      swap1\n      return\n        /* \"contracts/SimpleStorage.sol\":784:852  People public person1 = People({ favoriteNumber: 8, name: 'Mirko' }) */\n    tag_5:\n      tag_20\n      tag_21\n      jump\t// in\n    tag_20:\n      mload(0x40)\n      tag_22\n      swap3\n      swap2\n      swap1\n      tag_15\n      jump\t// in\n    tag_22:\n      mload(0x40)\n      dup1\n      swap2\n      sub\n      swap1\n      return\n        /* \"contracts/SimpleStorage.sol\":683:712  uint256 public favoriteNumber */\n    tag_6:\n      tag_23\n      tag_24\n      jump\t// in\n    tag_23:\n      mload(0x40)\n      tag_25\n      swap2\n      swap1\n      tag_19\n      jump\t// in\n    tag_25:\n      mload(0x40)\n      dup1\n      swap2\n      sub\n      swap1\n      return\n        /* \"contracts/SimpleStorage.sol\":1164:1369  function store(uint256 _favoriteNumber) public {... */\n    tag_7:\n      tag_26\n      0x04\n      dup1\n      calldatasize\n      sub\n      dup2\n      add\n      swap1\n      tag_27\n      swap2\n      swap1\n      tag_28\n      jump\t// in\n    tag_27:\n      tag_29\n      jump\t// in\n    tag_26:\n      stop\n        /* \"contracts/SimpleStorage.sol\":729:766  uint256 public brothersFavoriteNumber */\n    tag_8:\n      tag_30\n      tag_31\n      jump\t// in\n    tag_30:\n      mload(0x40)\n      tag_32\n      swap2\n      swap1\n      tag_19\n      jump\t// in\n    tag_32:\n      mload(0x40)\n      dup1\n      swap2\n      sub\n      swap1\n      return\n        /* \"contracts/SimpleStorage.sol\":858:927  People public person2 = People({ favoriteNumber: 3, name: 'Nikola' }) */\n    tag_9:\n      tag_33\n      tag_34\n      jump\t// in\n    tag_33:\n      mload(0x40)\n      tag_35\n      swap3\n      swap2\n      swap1\n      tag_15\n      jump\t// in\n    tag_35:\n      mload(0x40)\n      dup1\n      swap2\n      sub\n      swap1\n      return\n        /* \"contracts/SimpleStorage.sol\":1007:1077  People public person4 = People({ favoriteNumber: 7, name: 'Teodora' }) */\n    tag_10:\n      tag_36\n      tag_37\n      jump\t// in\n    tag_36:\n      mload(0x40)\n      tag_38\n      swap3\n      swap2\n      swap1\n      tag_15\n      jump\t// in\n    tag_38:\n      mload(0x40)\n      dup1\n      swap2\n      sub\n      swap1\n      return\n        /* \"contracts/SimpleStorage.sol\":933:1001  People public person3 = People({ favoriteNumber: 5, name: 'Ivana' }) */\n    tag_13:\n      0x06\n      dup1\n      0x00\n      add\n      sload\n      swap1\n      dup1\n      0x01\n      add\n      dup1\n      sload\n      tag_39\n      swap1\n      tag_40\n      jump\t// in\n    tag_39:\n      dup1\n      0x1f\n      add\n      0x20\n      dup1\n      swap2\n      div\n      mul\n      0x20\n      add\n      mload(0x40)\n      swap1\n      dup2\n      add\n      0x40\n      mstore\n      dup1\n      swap3\n      swap2\n      swap1\n      dup2\n      dup2\n      mstore\n      0x20\n      add\n      dup3\n      dup1\n      sload\n      tag_41\n      swap1\n      tag_40\n      jump\t// in\n    tag_41:\n      dup1\n      iszero\n      tag_42\n      jumpi\n      dup1\n      0x1f\n      lt\n      tag_43\n      jumpi\n      0x0100\n      dup1\n      dup4\n      sload\n      div\n      mul\n      dup4\n      mstore\n      swap2\n      0x20\n      add\n      swap2\n      jump(tag_42)\n    tag_43:\n      dup3\n      add\n      swap2\n      swap1\n      0x00\n      mstore\n      keccak256(0x00, 0x20)\n      swap1\n    tag_44:\n      dup2\n      sload\n      dup2\n      mstore\n      swap1\n      0x01\n      add\n      swap1\n      0x20\n      add\n      dup1\n      dup4\n      gt\n      tag_44\n      jumpi\n      dup3\n      swap1\n      sub\n      0x1f\n      and\n      dup3\n      add\n      swap2\n    tag_42:\n      pop\n      pop\n      pop\n      pop\n      pop\n      swap1\n      pop\n      dup3\n      jump\t// out\n        /* \"contracts/SimpleStorage.sol\":1570:1657  function retrieve() public view returns(uint256) {... */\n    tag_17:\n        /* \"contracts/SimpleStorage.sol\":1610:1617  uint256 */\n      0x00\n        /* \"contracts/SimpleStorage.sol\":1636:1650  favoriteNumber */\n      dup1\n      sload\n        /* \"contracts/SimpleStorage.sol\":1629:1650  return favoriteNumber */\n      swap1\n      pop\n        /* \"contracts/SimpleStorage.sol\":1570:1657  function retrieve() public view returns(uint256) {... */\n      swap1\n      jump\t// out\n        /* \"contracts/SimpleStorage.sol\":784:852  People public person1 = People({ favoriteNumber: 8, name: 'Mirko' }) */\n    tag_21:\n      0x02\n      dup1\n      0x00\n      add\n      sload\n      swap1\n      dup1\n      0x01\n      add\n      dup1\n      sload\n      tag_46\n      swap1\n      tag_40\n      jump\t// in\n    tag_46:\n      dup1\n      0x1f\n      add\n      0x20\n      dup1\n      swap2\n      div\n      mul\n      0x20\n      add\n      mload(0x40)\n      swap1\n      dup2\n      add\n      0x40\n      mstore\n      dup1\n      swap3\n      swap2\n      swap1\n      dup2\n      dup2\n      mstore\n      0x20\n      add\n      dup3\n      dup1\n      sload\n      tag_47\n      swap1\n      tag_40\n      jump\t// in\n    tag_47:\n      dup1\n      iszero\n      tag_48\n      jumpi\n      dup1\n      0x1f\n      lt\n      tag_49\n      jumpi\n      0x0100\n      dup1\n      dup4\n      sload\n      div\n      mul\n      dup4\n      mstore\n      swap2\n      0x20\n      add\n      swap2\n      jump(tag_48)\n    tag_49:\n      dup3\n      add\n      swap2\n      swap1\n      0x00\n      mstore\n      keccak256(0x00, 0x20)\n      swap1\n    tag_50:\n      dup2\n      sload\n      dup2\n      mstore\n      swap1\n      0x01\n      add\n      swap1\n      0x20\n      add\n      dup1\n      dup4\n      gt\n      tag_50\n      jumpi\n      dup3\n      swap1\n      sub\n      0x1f\n      and\n      dup3\n      add\n      swap2\n    tag_48:\n      pop\n      pop\n      pop\n      pop\n      pop\n      swap1\n      pop\n      dup3\n      jump\t// out\n        /* \"contracts/SimpleStorage.sol\":683:712  uint256 public favoriteNumber */\n    tag_24:\n      sload(0x00)\n      dup2\n      jump\t// out\n        /* \"contracts/SimpleStorage.sol\":1164:1369  function store(uint256 _favoriteNumber) public {... */\n    tag_29:\n        /* \"contracts/SimpleStorage.sol\":1238:1253  _favoriteNumber */\n      dup1\n        /* \"contracts/SimpleStorage.sol\":1221:1235  favoriteNumber */\n      0x00\n        /* \"contracts/SimpleStorage.sol\":1221:1253  favoriteNumber = _favoriteNumber */\n      dup2\n      swap1\n      sstore\n      pop\n        /* \"contracts/SimpleStorage.sol\":1164:1369  function store(uint256 _favoriteNumber) public {... */\n      pop\n      jump\t// out\n        /* \"contracts/SimpleStorage.sol\":729:766  uint256 public brothersFavoriteNumber */\n    tag_31:\n      sload(0x01)\n      dup2\n      jump\t// out\n        /* \"contracts/SimpleStorage.sol\":858:927  People public person2 = People({ favoriteNumber: 3, name: 'Nikola' }) */\n    tag_34:\n      0x04\n      dup1\n      0x00\n      add\n      sload\n      swap1\n      dup1\n      0x01\n      add\n      dup1\n      sload\n      tag_52\n      swap1\n      tag_40\n      jump\t// in\n    tag_52:\n      dup1\n      0x1f\n      add\n      0x20\n      dup1\n      swap2\n      div\n      mul\n      0x20\n      add\n      mload(0x40)\n      swap1\n      dup2\n      add\n      0x40\n      mstore\n      dup1\n      swap3\n      swap2\n      swap1\n      dup2\n      dup2\n      mstore\n      0x20\n      add\n      dup3\n      dup1\n      sload\n      tag_53\n      swap1\n      tag_40\n      jump\t// in\n    tag_53:\n      dup1\n      iszero\n      tag_54\n      jumpi\n      dup1\n      0x1f\n      lt\n      tag_55\n      jumpi\n      0x0100\n      dup1\n      dup4\n      sload\n      div\n      mul\n      dup4\n      mstore\n      swap2\n      0x20\n      add\n      swap2\n      jump(tag_54)\n    tag_55:\n      dup3\n      add\n      swap2\n      swap1\n      0x00\n      mstore\n      keccak256(0x00, 0x20)\n      swap1\n    tag_56:\n      dup2\n      sload\n      dup2\n      mstore\n      swap1\n      0x01\n      add\n      swap1\n      0x20\n      add\n      dup1\n      dup4\n      gt\n      tag_56\n      jumpi\n      dup3\n      swap1\n      sub\n      0x1f\n      and\n      dup3\n      add\n      swap2\n    tag_54:\n      pop\n      pop\n      pop\n      pop\n      pop\n      swap1\n      pop\n      dup3\n      jump\t// out\n        /* \"contracts/SimpleStorage.sol\":1007:1077  People public person4 = People({ favoriteNumber: 7, name: 'Teodora' }) */\n    tag_37:\n      0x08\n      dup1\n      0x00\n      add\n      sload\n      swap1\n      dup1\n      0x01\n      add\n      dup1\n      sload\n      tag_57\n      swap1\n      tag_40\n      jump\t// in\n    tag_57:\n      dup1\n      0x1f\n      add\n      0x20\n      dup1\n      swap2\n      div\n      mul\n      0x20\n      add\n      mload(0x40)\n      swap1\n      dup2\n      add\n      0x40\n      mstore\n      dup1\n      swap3\n      swap2\n      swap1\n      dup2\n      dup2\n      mstore\n      0x20\n      add\n      dup3\n      dup1\n      sload\n      tag_58\n      swap1\n      tag_40\n      jump\t// in\n    tag_58:\n      dup1\n      iszero\n      tag_59\n      jumpi\n      dup1\n      0x1f\n      lt\n      tag_60\n      jumpi\n      0x0100\n      dup1\n      dup4\n      sload\n      div\n      mul\n      dup4\n      mstore\n      swap2\n      0x20\n      add\n      swap2\n      jump(tag_59)\n    tag_60:\n      dup3\n      add\n      swap2\n      swap1\n      0x00\n      mstore\n      keccak256(0x00, 0x20)\n      swap1\n    tag_61:\n      dup2\n      sload\n      dup2\n      mstore\n      swap1\n      0x01\n      add\n      swap1\n      0x20\n      add\n      dup1\n      dup4\n      gt\n      tag_61\n      jumpi\n      dup3\n      swap1\n      sub\n      0x1f\n      and\n      dup3\n      add\n      swap2\n    tag_59:\n      pop\n      pop\n      pop\n      pop\n      pop\n      swap1\n      pop\n      dup3\n      jump\t// out\n        /* \"#utility.yul\":7:84   */\n    tag_62:\n        /* \"#utility.yul\":44:51   */\n      0x00\n        /* \"#utility.yul\":73:78   */\n      dup2\n        /* \"#utility.yul\":62:78   */\n      swap1\n      pop\n        /* \"#utility.yul\":7:84   */\n      swap2\n      swap1\n      pop\n      jump\t// out\n        /* \"#utility.yul\":90:208   */\n    tag_63:\n        /* \"#utility.yul\":177:201   */\n      tag_78\n        /* \"#utility.yul\":195:200   */\n      dup2\n        /* \"#utility.yul\":177:201   */\n      tag_62\n      jump\t// in\n    tag_78:\n        /* \"#utility.yul\":172:175   */\n      dup3\n        /* \"#utility.yul\":165:202   */\n      mstore\n        /* \"#utility.yul\":90:208   */\n      pop\n      pop\n      jump\t// out\n        /* \"#utility.yul\":214:313   */\n    tag_64:\n        /* \"#utility.yul\":266:272   */\n      0x00\n        /* \"#utility.yul\":300:305   */\n      dup2\n        /* \"#utility.yul\":294:306   */\n      mload\n        /* \"#utility.yul\":284:306   */\n      swap1\n      pop\n        /* \"#utility.yul\":214:313   */\n      swap2\n      swap1\n      pop\n      jump\t// out\n        /* \"#utility.yul\":319:488   */\n    tag_65:\n        /* \"#utility.yul\":403:414   */\n      0x00\n        /* \"#utility.yul\":437:443   */\n      dup3\n        /* \"#utility.yul\":432:435   */\n      dup3\n        /* \"#utility.yul\":425:444   */\n      mstore\n        /* \"#utility.yul\":477:481   */\n      0x20\n        /* \"#utility.yul\":472:475   */\n      dup3\n        /* \"#utility.yul\":468:482   */\n      add\n        /* \"#utility.yul\":453:482   */\n      swap1\n      pop\n        /* \"#utility.yul\":319:488   */\n      swap3\n      swap2\n      pop\n      pop\n      jump\t// out\n        /* \"#utility.yul\":494:801   */\n    tag_66:\n        /* \"#utility.yul\":562:563   */\n      0x00\n        /* \"#utility.yul\":572:685   */\n    tag_82:\n        /* \"#utility.yul\":586:592   */\n      dup4\n        /* \"#utility.yul\":583:584   */\n      dup2\n        /* \"#utility.yul\":580:593   */\n      lt\n        /* \"#utility.yul\":572:685   */\n      iszero\n      tag_84\n      jumpi\n        /* \"#utility.yul\":671:672   */\n      dup1\n        /* \"#utility.yul\":666:669   */\n      dup3\n        /* \"#utility.yul\":662:673   */\n      add\n        /* \"#utility.yul\":656:674   */\n      mload\n        /* \"#utility.yul\":652:653   */\n      dup2\n        /* \"#utility.yul\":647:650   */\n      dup5\n        /* \"#utility.yul\":643:654   */\n      add\n        /* \"#utility.yul\":636:675   */\n      mstore\n        /* \"#utility.yul\":608:610   */\n      0x20\n        /* \"#utility.yul\":605:606   */\n      dup2\n        /* \"#utility.yul\":601:611   */\n      add\n        /* \"#utility.yul\":596:611   */\n      swap1\n      pop\n        /* \"#utility.yul\":572:685   */\n      jump(tag_82)\n    tag_84:\n        /* \"#utility.yul\":703:709   */\n      dup4\n        /* \"#utility.yul\":700:701   */\n      dup2\n        /* \"#utility.yul\":697:710   */\n      gt\n        /* \"#utility.yul\":694:795   */\n      iszero\n      tag_85\n      jumpi\n        /* \"#utility.yul\":783:784   */\n      0x00\n        /* \"#utility.yul\":774:780   */\n      dup5\n        /* \"#utility.yul\":769:772   */\n      dup5\n        /* \"#utility.yul\":765:781   */\n      add\n        /* \"#utility.yul\":758:785   */\n      mstore\n        /* \"#utility.yul\":694:795   */\n    tag_85:\n        /* \"#utility.yul\":543:801   */\n      pop\n        /* \"#utility.yul\":494:801   */\n      pop\n      pop\n      pop\n      jump\t// out\n        /* \"#utility.yul\":807:909   */\n    tag_67:\n        /* \"#utility.yul\":848:854   */\n      0x00\n        /* \"#utility.yul\":899:901   */\n      0x1f\n        /* \"#utility.yul\":895:902   */\n      not\n        /* \"#utility.yul\":890:892   */\n      0x1f\n        /* \"#utility.yul\":883:888   */\n      dup4\n        /* \"#utility.yul\":879:893   */\n      add\n        /* \"#utility.yul\":875:903   */\n      and\n        /* \"#utility.yul\":865:903   */\n      swap1\n      pop\n        /* \"#utility.yul\":807:909   */\n      swap2\n      swap1\n      pop\n      jump\t// out\n        /* \"#utility.yul\":915:1279   */\n    tag_68:\n        /* \"#utility.yul\":1003:1006   */\n      0x00\n        /* \"#utility.yul\":1031:1070   */\n      tag_88\n        /* \"#utility.yul\":1064:1069   */\n      dup3\n        /* \"#utility.yul\":1031:1070   */\n      tag_64\n      jump\t// in\n    tag_88:\n        /* \"#utility.yul\":1086:1157   */\n      tag_89\n        /* \"#utility.yul\":1150:1156   */\n      dup2\n        /* \"#utility.yul\":1145:1148   */\n      dup6\n        /* \"#utility.yul\":1086:1157   */\n      tag_65\n      jump\t// in\n    tag_89:\n        /* \"#utility.yul\":1079:1157   */\n      swap4\n      pop\n        /* \"#utility.yul\":1166:1218   */\n      tag_90\n        /* \"#utility.yul\":1211:1217   */\n      dup2\n        /* \"#utility.yul\":1206:1209   */\n      dup6\n        /* \"#utility.yul\":1199:1203   */\n      0x20\n        /* \"#utility.yul\":1192:1197   */\n      dup7\n        /* \"#utility.yul\":1188:1204   */\n      add\n        /* \"#utility.yul\":1166:1218   */\n      tag_66\n      jump\t// in\n    tag_90:\n        /* \"#utility.yul\":1243:1272   */\n      tag_91\n        /* \"#utility.yul\":1265:1271   */\n      dup2\n        /* \"#utility.yul\":1243:1272   */\n      tag_67\n      jump\t// in\n    tag_91:\n        /* \"#utility.yul\":1238:1241   */\n      dup5\n        /* \"#utility.yul\":1234:1273   */\n      add\n        /* \"#utility.yul\":1227:1273   */\n      swap2\n      pop\n        /* \"#utility.yul\":1007:1279   */\n      pop\n        /* \"#utility.yul\":915:1279   */\n      swap3\n      swap2\n      pop\n      pop\n      jump\t// out\n        /* \"#utility.yul\":1285:1708   */\n    tag_15:\n        /* \"#utility.yul\":1426:1430   */\n      0x00\n        /* \"#utility.yul\":1464:1466   */\n      0x40\n        /* \"#utility.yul\":1453:1462   */\n      dup3\n        /* \"#utility.yul\":1449:1467   */\n      add\n        /* \"#utility.yul\":1441:1467   */\n      swap1\n      pop\n        /* \"#utility.yul\":1477:1548   */\n      tag_93\n        /* \"#utility.yul\":1545:1546   */\n      0x00\n        /* \"#utility.yul\":1534:1543   */\n      dup4\n        /* \"#utility.yul\":1530:1547   */\n      add\n        /* \"#utility.yul\":1521:1527   */\n      dup6\n        /* \"#utility.yul\":1477:1548   */\n      tag_63\n      jump\t// in\n    tag_93:\n        /* \"#utility.yul\":1595:1604   */\n      dup2\n        /* \"#utility.yul\":1589:1593   */\n      dup2\n        /* \"#utility.yul\":1585:1605   */\n      sub\n        /* \"#utility.yul\":1580:1582   */\n      0x20\n        /* \"#utility.yul\":1569:1578   */\n      dup4\n        /* \"#utility.yul\":1565:1583   */\n      add\n        /* \"#utility.yul\":1558:1606   */\n      mstore\n        /* \"#utility.yul\":1623:1701   */\n      tag_94\n        /* \"#utility.yul\":1696:1700   */\n      dup2\n        /* \"#utility.yul\":1687:1693   */\n      dup5\n        /* \"#utility.yul\":1623:1701   */\n      tag_68\n      jump\t// in\n    tag_94:\n        /* \"#utility.yul\":1615:1701   */\n      swap1\n      pop\n        /* \"#utility.yul\":1285:1708   */\n      swap4\n      swap3\n      pop\n      pop\n      pop\n      jump\t// out\n        /* \"#utility.yul\":1714:1936   */\n    tag_19:\n        /* \"#utility.yul\":1807:1811   */\n      0x00\n        /* \"#utility.yul\":1845:1847   */\n      0x20\n        /* \"#utility.yul\":1834:1843   */\n      dup3\n        /* \"#utility.yul\":1830:1848   */\n      add\n        /* \"#utility.yul\":1822:1848   */\n      swap1\n      pop\n        /* \"#utility.yul\":1858:1929   */\n      tag_96\n        /* \"#utility.yul\":1926:1927   */\n      0x00\n        /* \"#utility.yul\":1915:1924   */\n      dup4\n        /* \"#utility.yul\":1911:1928   */\n      add\n        /* \"#utility.yul\":1902:1908   */\n      dup5\n        /* \"#utility.yul\":1858:1929   */\n      tag_63\n      jump\t// in\n    tag_96:\n        /* \"#utility.yul\":1714:1936   */\n      swap3\n      swap2\n      pop\n      pop\n      jump\t// out\n        /* \"#utility.yul\":2023:2140   */\n    tag_70:\n        /* \"#utility.yul\":2132:2133   */\n      0x00\n        /* \"#utility.yul\":2129:2130   */\n      dup1\n        /* \"#utility.yul\":2122:2134   */\n      revert\n        /* \"#utility.yul\":2269:2391   */\n    tag_72:\n        /* \"#utility.yul\":2342:2366   */\n      tag_101\n        /* \"#utility.yul\":2360:2365   */\n      dup2\n        /* \"#utility.yul\":2342:2366   */\n      tag_62\n      jump\t// in\n    tag_101:\n        /* \"#utility.yul\":2335:2340   */\n      dup2\n        /* \"#utility.yul\":2332:2367   */\n      eq\n        /* \"#utility.yul\":2322:2385   */\n      tag_102\n      jumpi\n        /* \"#utility.yul\":2381:2382   */\n      0x00\n        /* \"#utility.yul\":2378:2379   */\n      dup1\n        /* \"#utility.yul\":2371:2383   */\n      revert\n        /* \"#utility.yul\":2322:2385   */\n    tag_102:\n        /* \"#utility.yul\":2269:2391   */\n      pop\n      jump\t// out\n        /* \"#utility.yul\":2397:2536   */\n    tag_73:\n        /* \"#utility.yul\":2443:2448   */\n      0x00\n        /* \"#utility.yul\":2481:2487   */\n      dup2\n        /* \"#utility.yul\":2468:2488   */\n      calldataload\n        /* \"#utility.yul\":2459:2488   */\n      swap1\n      pop\n        /* \"#utility.yul\":2497:2530   */\n      tag_104\n        /* \"#utility.yul\":2524:2529   */\n      dup2\n        /* \"#utility.yul\":2497:2530   */\n      tag_72\n      jump\t// in\n    tag_104:\n        /* \"#utility.yul\":2397:2536   */\n      swap3\n      swap2\n      pop\n      pop\n      jump\t// out\n        /* \"#utility.yul\":2542:2871   */\n    tag_28:\n        /* \"#utility.yul\":2601:2607   */\n      0x00\n        /* \"#utility.yul\":2650:2652   */\n      0x20\n        /* \"#utility.yul\":2638:2647   */\n      dup3\n        /* \"#utility.yul\":2629:2636   */\n      dup5\n        /* \"#utility.yul\":2625:2648   */\n      sub\n        /* \"#utility.yul\":2621:2653   */\n      slt\n        /* \"#utility.yul\":2618:2737   */\n      iszero\n      tag_106\n      jumpi\n        /* \"#utility.yul\":2656:2735   */\n      tag_107\n      tag_70\n      jump\t// in\n    tag_107:\n        /* \"#utility.yul\":2618:2737   */\n    tag_106:\n        /* \"#utility.yul\":2776:2777   */\n      0x00\n        /* \"#utility.yul\":2801:2854   */\n      tag_108\n        /* \"#utility.yul\":2846:2853   */\n      dup5\n        /* \"#utility.yul\":2837:2843   */\n      dup3\n        /* \"#utility.yul\":2826:2835   */\n      dup6\n        /* \"#utility.yul\":2822:2844   */\n      add\n        /* \"#utility.yul\":2801:2854   */\n      tag_73\n      jump\t// in\n    tag_108:\n        /* \"#utility.yul\":2791:2854   */\n      swap2\n      pop\n        /* \"#utility.yul\":2747:2864   */\n      pop\n        /* \"#utility.yul\":2542:2871   */\n      swap3\n      swap2\n      pop\n      pop\n      jump\t// out\n        /* \"#utility.yul\":2877:3057   */\n    tag_74:\n        /* \"#utility.yul\":2925:3002   */\n      0x4e487b7100000000000000000000000000000000000000000000000000000000\n        /* \"#utility.yul\":2922:2923   */\n      0x00\n        /* \"#utility.yul\":2915:3003   */\n      mstore\n        /* \"#utility.yul\":3022:3026   */\n      0x22\n        /* \"#utility.yul\":3019:3020   */\n      0x04\n        /* \"#utility.yul\":3012:3027   */\n      mstore\n        /* \"#utility.yul\":3046:3050   */\n      0x24\n        /* \"#utility.yul\":3043:3044   */\n      0x00\n        /* \"#utility.yul\":3036:3051   */\n      revert\n        /* \"#utility.yul\":3063:3383   */\n    tag_40:\n        /* \"#utility.yul\":3107:3113   */\n      0x00\n        /* \"#utility.yul\":3144:3145   */\n      0x02\n        /* \"#utility.yul\":3138:3142   */\n      dup3\n        /* \"#utility.yul\":3134:3146   */\n      div\n        /* \"#utility.yul\":3124:3146   */\n      swap1\n      pop\n        /* \"#utility.yul\":3191:3192   */\n      0x01\n        /* \"#utility.yul\":3185:3189   */\n      dup3\n        /* \"#utility.yul\":3181:3193   */\n      and\n        /* \"#utility.yul\":3212:3230   */\n      dup1\n        /* \"#utility.yul\":3202:3283   */\n      tag_111\n      jumpi\n        /* \"#utility.yul\":3268:3272   */\n      0x7f\n        /* \"#utility.yul\":3260:3266   */\n      dup3\n        /* \"#utility.yul\":3256:3273   */\n      and\n        /* \"#utility.yul\":3246:3273   */\n      swap2\n      pop\n        /* \"#utility.yul\":3202:3283   */\n    tag_111:\n        /* \"#utility.yul\":3330:3332   */\n      0x20\n        /* \"#utility.yul\":3322:3328   */\n      dup3\n        /* \"#utility.yul\":3319:3333   */\n      lt\n        /* \"#utility.yul\":3299:3317   */\n      dup2\n        /* \"#utility.yul\":3296:3334   */\n      eq\n        /* \"#utility.yul\":3293:3377   */\n      iszero\n      tag_112\n      jumpi\n        /* \"#utility.yul\":3349:3367   */\n      tag_113\n      tag_74\n      jump\t// in\n    tag_113:\n        /* \"#utility.yul\":3293:3377   */\n    tag_112:\n        /* \"#utility.yul\":3114:3383   */\n      pop\n        /* \"#utility.yul\":3063:3383   */\n      swap2\n      swap1\n      pop\n      jump\t// out\n\n    auxdata: 0xa264697066735822122060925ab224fb4902bc71e6b9beec85907b8a10510647dbd62a8b25fb976b156364736f6c63430008080033\n}\n",
				"bytecode": {
					"linkReferences": {},
					"object": "60806040526040518060400160405280600881526020016040518060400160405280600581526020017f4d69726b6f00000000000000000000000000000000000000000000000000000081525081525060026000820151816000015560208201518160010190805190602001906100779291906101ee565b5050506040518060400160405280600381526020016040518060400160405280600681526020017f4e696b6f6c61000000000000000000000000000000000000000000000000000081525081525060046000820151816000015560208201518160010190805190602001906100ed9291906101ee565b5050506040518060400160405280600581526020016040518060400160405280600581526020017f4976616e6100000000000000000000000000000000000000000000000000000081525081525060066000820151816000015560208201518160010190805190602001906101639291906101ee565b5050506040518060400160405280600781526020016040518060400160405280600781526020017f54656f646f72610000000000000000000000000000000000000000000000000081525081525060086000820151816000015560208201518160010190805190602001906101d99291906101ee565b5050503480156101e857600080fd5b506102f2565b8280546101fa906102c0565b90600052602060002090601f01602090048101928261021c5760008555610263565b82601f1061023557805160ff1916838001178555610263565b82800160010185558215610263579182015b82811115610262578251825591602001919060010190610247565b5b5090506102709190610274565b5090565b5b8082111561028d576000816000905550600101610275565b5090565b7f4e487b7100000000000000000000000000000000000000000000000000000000600052602260045260246000fd5b600060028204905060018216806102d857607f821691505b602082108114156102ec576102eb610291565b5b50919050565b6105f8806103016000396000f3fe608060405234801561001057600080fd5b50600436106100885760003560e01c80636057361d1161005b5780636057361d1461010757806361efd9a71461012357806366993d6614610141578063a210cf3f1461016057610088565b806320b2d87f1461008d5780632e64cec1146100ac57806346cb59c2146100ca578063471f7cdf146100e9575b600080fd5b61009561017f565b6040516100a39291906104b8565b60405180910390f35b6100b4610219565b6040516100c191906104e8565b60405180910390f35b6100d2610222565b6040516100e09291906104b8565b60405180910390f35b6100f16102bc565b6040516100fe91906104e8565b60405180910390f35b610121600480360381019061011c9190610534565b6102c2565b005b61012b6102cc565b60405161013891906104e8565b60405180910390f35b6101496102d2565b6040516101579291906104b8565b60405180910390f35b61016861036c565b6040516101769291906104b8565b60405180910390f35b600680600001549080600101805461019690610590565b80601f01602080910402602001604051908101604052809291908181526020018280546101c290610590565b801561020f5780601f106101e45761010080835404028352916020019161020f565b820191906000526020600020905b8154815290600101906020018083116101f257829003601f168201915b5050505050905082565b60008054905090565b600280600001549080600101805461023990610590565b80601f016020809104026020016040519081016040528092919081815260200182805461026590610590565b80156102b25780601f10610287576101008083540402835291602001916102b2565b820191906000526020600020905b81548152906001019060200180831161029557829003601f168201915b5050505050905082565b60005481565b8060008190555050565b60015481565b60048060000154908060010180546102e990610590565b80601f016020809104026020016040519081016040528092919081815260200182805461031590610590565b80156103625780601f1061033757610100808354040283529160200191610362565b820191906000526020600020905b81548152906001019060200180831161034557829003601f168201915b5050505050905082565b600880600001549080600101805461038390610590565b80601f01602080910402602001604051908101604052809291908181526020018280546103af90610590565b80156103fc5780601f106103d1576101008083540402835291602001916103fc565b820191906000526020600020905b8154815290600101906020018083116103df57829003601f168201915b5050505050905082565b6000819050919050565b61041981610406565b82525050565b600081519050919050565b600082825260208201905092915050565b60005b8381101561045957808201518184015260208101905061043e565b83811115610468576000848401525b50505050565b6000601f19601f8301169050919050565b600061048a8261041f565b610494818561042a565b93506104a481856020860161043b565b6104ad8161046e565b840191505092915050565b60006040820190506104cd6000830185610410565b81810360208301526104df818461047f565b90509392505050565b60006020820190506104fd6000830184610410565b92915050565b600080fd5b61051181610406565b811461051c57600080fd5b50565b60008135905061052e81610508565b92915050565b60006020828403121561054a57610549610503565b5b60006105588482850161051f565b91505092915050565b7f4e487b7100000000000000000000000000000000000000000000000000000000600052602260045260246000fd5b600060028204905060018216806105a857607f821691505b602082108114156105bc576105bb610561565b5b5091905056fea264697066735822122060925ab224fb4902bc71e6b9beec85907b8a10510647dbd62a8b25fb976b156364736f6c63430008080033",
					"opcodes": "PUSH1 0x80 PUSH1 0x40 MSTORE PUSH1 0x40 MLOAD DUP1 PUSH1 0x40 ADD PUSH1 0x40 MSTORE DUP1 PUSH1 0x8 DUP2 MSTORE PUSH1 0x20 ADD PUSH1 0x40 MLOAD DUP1 PUSH1 0x40 ADD PUSH1 0x40 MSTORE DUP1 PUSH1 0x5 DUP2 MSTORE PUSH1 0x20 ADD PUSH32 0x4D69726B6F000000000000000000000000000000000000000000000000000000 DUP2 MSTORE POP DUP2 MSTORE POP PUSH1 0x2 PUSH1 0x0 DUP3 ADD MLOAD DUP2 PUSH1 0x0 ADD SSTORE PUSH1 0x20 DUP3 ADD MLOAD DUP2 PUSH1 0x1 ADD SWAP1 DUP1 MLOAD SWAP1 PUSH1 0x20 ADD SWAP1 PUSH2 0x77 SWAP3 SWAP2 SWAP1 PUSH2 0x1EE JUMP JUMPDEST POP POP POP PUSH1 0x40 MLOAD DUP1 PUSH1 0x40 ADD PUSH1 0x40 MSTORE DUP1 PUSH1 0x3 DUP2 MSTORE PUSH1 0x20 ADD PUSH1 0x40 MLOAD DUP1 PUSH1 0x40 ADD PUSH1 0x40 MSTORE DUP1 PUSH1 0x6 DUP2 MSTORE PUSH1 0x20 ADD PUSH32 0x4E696B6F6C610000000000000000000000000000000000000000000000000000 DUP2 MSTORE POP DUP2 MSTORE POP PUSH1 0x4 PUSH1 0x0 DUP3 ADD MLOAD DUP2 PUSH1 0x0 ADD SSTORE PUSH1 0x20 DUP3 ADD MLOAD DUP2 PUSH1 0x1 ADD SWAP1 DUP1 MLOAD SWAP1 PUSH1 0x20 ADD SWAP1 PUSH2 0xED SWAP3 SWAP2 SWAP1 PUSH2 0x1EE JUMP JUMPDEST POP POP POP PUSH1 0x40 MLOAD DUP1 PUSH1 0x40 ADD PUSH1 0x40 MSTORE DUP1 PUSH1 0x5 DUP2 MSTORE PUSH1 0x20 ADD PUSH1 0x40 MLOAD DUP1 PUSH1 0x40 ADD PUSH1 0x40 MSTORE DUP1 PUSH1 0x5 DUP2 MSTORE PUSH1 0x20 ADD PUSH32 0x4976616E61000000000000000000000000000000000000000000000000000000 DUP2 MSTORE POP DUP2 MSTORE POP PUSH1 0x6 PUSH1 0x0 DUP3 ADD MLOAD DUP2 PUSH1 0x0 ADD SSTORE PUSH1 0x20 DUP3 ADD MLOAD DUP2 PUSH1 0x1 ADD SWAP1 DUP1 MLOAD SWAP1 PUSH1 0x20 ADD SWAP1 PUSH2 0x163 SWAP3 SWAP2 SWAP1 PUSH2 0x1EE JUMP JUMPDEST POP POP POP PUSH1 0x40 MLOAD DUP1 PUSH1 0x40 ADD PUSH1 0x40 MSTORE DUP1 PUSH1 0x7 DUP2 MSTORE PUSH1 0x20 ADD PUSH1 0x40 MLOAD DUP1 PUSH1 0x40 ADD PUSH1 0x40 MSTORE DUP1 PUSH1 0x7 DUP2 MSTORE PUSH1 0x20 ADD PUSH32 0x54656F646F726100000000000000000000000000000000000000000000000000 DUP2 MSTORE POP DUP2 MSTORE POP PUSH1 0x8 PUSH1 0x0 DUP3 ADD MLOAD DUP2 PUSH1 0x0 ADD SSTORE PUSH1 0x20 DUP3 ADD MLOAD DUP2 PUSH1 0x1 ADD SWAP1 DUP1 MLOAD SWAP1 PUSH1 0x20 ADD SWAP1 PUSH2 0x1D9 SWAP3 SWAP2 SWAP1 PUSH2 0x1EE JUMP JUMPDEST POP POP POP CALLVALUE DUP1 ISZERO PUSH2 0x1E8 JUMPI PUSH1 0x0 DUP1 REVERT JUMPDEST POP PUSH2 0x2F2 JUMP JUMPDEST DUP3 DUP1 SLOAD PUSH2 0x1FA SWAP1 PUSH2 0x2C0 JUMP JUMPDEST SWAP1 PUSH1 0x0 MSTORE PUSH1 0x20 PUSH1 0x0 KECCAK256 SWAP1 PUSH1 0x1F ADD PUSH1 0x20 SWAP1 DIV DUP2 ADD SWAP3 DUP3 PUSH2 0x21C JUMPI PUSH1 0x0 DUP6 SSTORE PUSH2 0x263 JUMP JUMPDEST DUP3 PUSH1 0x1F LT PUSH2 0x235 JUMPI DUP1 MLOAD PUSH1 0xFF NOT AND DUP4 DUP1 ADD OR DUP6 SSTORE PUSH2 0x263 JUMP JUMPDEST DUP3 DUP1 ADD PUSH1 0x1 ADD DUP6 SSTORE DUP3 ISZERO PUSH2 0x263 JUMPI SWAP2 DUP3 ADD JUMPDEST DUP3 DUP2 GT ISZERO PUSH2 0x262 JUMPI DUP3 MLOAD DUP3 SSTORE SWAP2 PUSH1 0x20 ADD SWAP2 SWAP1 PUSH1 0x1 ADD SWAP1 PUSH2 0x247 JUMP JUMPDEST JUMPDEST POP SWAP1 POP PUSH2 0x270 SWAP2 SWAP1 PUSH2 0x274 JUMP JUMPDEST POP SWAP1 JUMP JUMPDEST JUMPDEST DUP1 DUP3 GT ISZERO PUSH2 0x28D JUMPI PUSH1 0x0 DUP2 PUSH1 0x0 SWAP1 SSTORE POP PUSH1 0x1 ADD PUSH2 0x275 JUMP JUMPDEST POP SWAP1 JUMP JUMPDEST PUSH32 0x4E487B7100000000000000000000000000000000000000000000000000000000 PUSH1 0x0 MSTORE PUSH1 0x22 PUSH1 0x4 MSTORE PUSH1 0x24 PUSH1 0x0 REVERT JUMPDEST PUSH1 0x0 PUSH1 0x2 DUP3 DIV SWAP1 POP PUSH1 0x1 DUP3 AND DUP1 PUSH2 0x2D8 JUMPI PUSH1 0x7F DUP3 AND SWAP2 POP JUMPDEST PUSH1 0x20 DUP3 LT DUP2 EQ ISZERO PUSH2 0x2EC JUMPI PUSH2 0x2EB PUSH2 0x291 JUMP JUMPDEST JUMPDEST POP SWAP2 SWAP1 POP JUMP JUMPDEST PUSH2 0x5F8 DUP1 PUSH2 0x301 PUSH1 0x0 CODECOPY PUSH1 0x0 RETURN INVALID PUSH1 0x80 PUSH1 0x40 MSTORE CALLVALUE DUP1 ISZERO PUSH2 0x10 JUMPI PUSH1 0x0 DUP1 REVERT JUMPDEST POP PUSH1 0x4 CALLDATASIZE LT PUSH2 0x88 JUMPI PUSH1 0x0 CALLDATALOAD PUSH1 0xE0 SHR DUP1 PUSH4 0x6057361D GT PUSH2 0x5B JUMPI DUP1 PUSH4 0x6057361D EQ PUSH2 0x107 JUMPI DUP1 PUSH4 0x61EFD9A7 EQ PUSH2 0x123 JUMPI DUP1 PUSH4 0x66993D66 EQ PUSH2 0x141 JUMPI DUP1 PUSH4 0xA210CF3F EQ PUSH2 0x160 JUMPI PUSH2 0x88 JUMP JUMPDEST DUP1 PUSH4 0x20B2D87F EQ PUSH2 0x8D JUMPI DUP1 PUSH4 0x2E64CEC1 EQ PUSH2 0xAC JUMPI DUP1 PUSH4 0x46CB59C2 EQ PUSH2 0xCA JUMPI DUP1 PUSH4 0x471F7CDF EQ PUSH2 0xE9 JUMPI JUMPDEST PUSH1 0x0 DUP1 REVERT JUMPDEST PUSH2 0x95 PUSH2 0x17F JUMP JUMPDEST PUSH1 0x40 MLOAD PUSH2 0xA3 SWAP3 SWAP2 SWAP1 PUSH2 0x4B8 JUMP JUMPDEST PUSH1 0x40 MLOAD DUP1 SWAP2 SUB SWAP1 RETURN JUMPDEST PUSH2 0xB4 PUSH2 0x219 JUMP JUMPDEST PUSH1 0x40 MLOAD PUSH2 0xC1 SWAP2 SWAP1 PUSH2 0x4E8 JUMP JUMPDEST PUSH1 0x40 MLOAD DUP1 SWAP2 SUB SWAP1 RETURN JUMPDEST PUSH2 0xD2 PUSH2 0x222 JUMP JUMPDEST PUSH1 0x40 MLOAD PUSH2 0xE0 SWAP3 SWAP2 SWAP1 PUSH2 0x4B8 JUMP JUMPDEST PUSH1 0x40 MLOAD DUP1 SWAP2 SUB SWAP1 RETURN JUMPDEST PUSH2 0xF1 PUSH2 0x2BC JUMP JUMPDEST PUSH1 0x40 MLOAD PUSH2 0xFE SWAP2 SWAP1 PUSH2 0x4E8 JUMP JUMPDEST PUSH1 0x40 MLOAD DUP1 SWAP2 SUB SWAP1 RETURN JUMPDEST PUSH2 0x121 PUSH1 0x4 DUP1 CALLDATASIZE SUB DUP2 ADD SWAP1 PUSH2 0x11C SWAP2 SWAP1 PUSH2 0x534 JUMP JUMPDEST PUSH2 0x2C2 JUMP JUMPDEST STOP JUMPDEST PUSH2 0x12B PUSH2 0x2CC JUMP JUMPDEST PUSH1 0x40 MLOAD PUSH2 0x138 SWAP2 SWAP1 PUSH2 0x4E8 JUMP JUMPDEST PUSH1 0x40 MLOAD DUP1 SWAP2 SUB SWAP1 RETURN JUMPDEST PUSH2 0x149 PUSH2 0x2D2 JUMP JUMPDEST PUSH1 0x40 MLOAD PUSH2 0x157 SWAP3 SWAP2 SWAP1 PUSH2 0x4B8 JUMP JUMPDEST PUSH1 0x40 MLOAD DUP1 SWAP2 SUB SWAP1 RETURN JUMPDEST PUSH2 0x168 PUSH2 0x36C JUMP JUMPDEST PUSH1 0x40 MLOAD PUSH2 0x176 SWAP3 SWAP2 SWAP1 PUSH2 0x4B8 JUMP JUMPDEST PUSH1 0x40 MLOAD DUP1 SWAP2 SUB SWAP1 RETURN JUMPDEST PUSH1 0x6 DUP1 PUSH1 0x0 ADD SLOAD SWAP1 DUP1 PUSH1 0x1 ADD DUP1 SLOAD PUSH2 0x196 SWAP1 PUSH2 0x590 JUMP JUMPDEST DUP1 PUSH1 0x1F ADD PUSH1 0x20 DUP1 SWAP2 DIV MUL PUSH1 0x20 ADD PUSH1 0x40 MLOAD SWAP1 DUP2 ADD PUSH1 0x40 MSTORE DUP1 SWAP3 SWAP2 SWAP1 DUP2 DUP2 MSTORE PUSH1 0x20 ADD DUP3 DUP1 SLOAD PUSH2 0x1C2 SWAP1 PUSH2 0x590 JUMP JUMPDEST DUP1 ISZERO PUSH2 0x20F JUMPI DUP1 PUSH1 0x1F LT PUSH2 0x1E4 JUMPI PUSH2 0x100 DUP1 DUP4 SLOAD DIV MUL DUP4 MSTORE SWAP2 PUSH1 0x20 ADD SWAP2 PUSH2 0x20F JUMP JUMPDEST DUP3 ADD SWAP2 SWAP1 PUSH1 0x0 MSTORE PUSH1 0x20 PUSH1 0x0 KECCAK256 SWAP1 JUMPDEST DUP2 SLOAD DUP2 MSTORE SWAP1 PUSH1 0x1 ADD SWAP1 PUSH1 0x20 ADD DUP1 DUP4 GT PUSH2 0x1F2 JUMPI DUP3 SWAP1 SUB PUSH1 0x1F AND DUP3 ADD SWAP2 JUMPDEST POP POP POP POP POP SWAP1 POP DUP3 JUMP JUMPDEST PUSH1 0x0 DUP1 SLOAD SWAP1 POP SWAP1 JUMP JUMPDEST PUSH1 0x2 DUP1 PUSH1 0x0 ADD SLOAD SWAP1 DUP1 PUSH1 0x1 ADD DUP1 SLOAD PUSH2 0x239 SWAP1 PUSH2 0x590 JUMP JUMPDEST DUP1 PUSH1 0x1F ADD PUSH1 0x20 DUP1 SWAP2 DIV MUL PUSH1 0x20 ADD PUSH1 0x40 MLOAD SWAP1 DUP2 ADD PUSH1 0x40 MSTORE DUP1 SWAP3 SWAP2 SWAP1 DUP2 DUP2 MSTORE PUSH1 0x20 ADD DUP3 DUP1 SLOAD PUSH2 0x265 SWAP1 PUSH2 0x590 JUMP JUMPDEST DUP1 ISZERO PUSH2 0x2B2 JUMPI DUP1 PUSH1 0x1F LT PUSH2 0x287 JUMPI PUSH2 0x100 DUP1 DUP4 SLOAD DIV MUL DUP4 MSTORE SWAP2 PUSH1 0x20 ADD SWAP2 PUSH2 0x2B2 JUMP JUMPDEST DUP3 ADD SWAP2 SWAP1 PUSH1 0x0 MSTORE PUSH1 0x20 PUSH1 0x0 KECCAK256 SWAP1 JUMPDEST DUP2 SLOAD DUP2 MSTORE SWAP1 PUSH1 0x1 ADD SWAP1 PUSH1 0x20 ADD DUP1 DUP4 GT PUSH2 0x295 JUMPI DUP3 SWAP1 SUB PUSH1 0x1F AND DUP3 ADD SWAP2 JUMPDEST POP POP POP POP POP SWAP1 POP DUP3 JUMP JUMPDEST PUSH1 0x0 SLOAD DUP2 JUMP JUMPDEST DUP1 PUSH1 0x0 DUP2 SWAP1 SSTORE POP POP JUMP JUMPDEST PUSH1 0x1 SLOAD DUP2 JUMP JUMPDEST PUSH1 0x4 DUP1 PUSH1 0x0 ADD SLOAD SWAP1 DUP1 PUSH1 0x1 ADD DUP1 SLOAD PUSH2 0x2E9 SWAP1 PUSH2 0x590 JUMP JUMPDEST DUP1 PUSH1 0x1F ADD PUSH1 0x20 DUP1 SWAP2 DIV MUL PUSH1 0x20 ADD PUSH1 0x40 MLOAD SWAP1 DUP2 ADD PUSH1 0x40 MSTORE DUP1 SWAP3 SWAP2 SWAP1 DUP2 DUP2 MSTORE PUSH1 0x20 ADD DUP3 DUP1 SLOAD PUSH2 0x315 SWAP1 PUSH2 0x590 JUMP JUMPDEST DUP1 ISZERO PUSH2 0x362 JUMPI DUP1 PUSH1 0x1F LT PUSH2 0x337 JUMPI PUSH2 0x100 DUP1 DUP4 SLOAD DIV MUL DUP4 MSTORE SWAP2 PUSH1 0x20 ADD SWAP2 PUSH2 0x362 JUMP JUMPDEST DUP3 ADD SWAP2 SWAP1 PUSH1 0x0 MSTORE PUSH1 0x20 PUSH1 0x0 KECCAK256 SWAP1 JUMPDEST DUP2 SLOAD DUP2 MSTORE SWAP1 PUSH1 0x1 ADD SWAP1 PUSH1 0x20 ADD DUP1 DUP4 GT PUSH2 0x345 JUMPI DUP3 SWAP1 SUB PUSH1 0x1F AND DUP3 ADD SWAP2 JUMPDEST POP POP POP POP POP SWAP1 POP DUP3 JUMP JUMPDEST PUSH1 0x8 DUP1 PUSH1 0x0 ADD SLOAD SWAP1 DUP1 PUSH1 0x1 ADD DUP1 SLOAD PUSH2 0x383 SWAP1 PUSH2 0x590 JUMP JUMPDEST DUP1 PUSH1 0x1F ADD PUSH1 0x20 DUP1 SWAP2 DIV MUL PUSH1 0x20 ADD PUSH1 0x40 MLOAD SWAP1 DUP2 ADD PUSH1 0x40 MSTORE DUP1 SWAP3 SWAP2 SWAP1 DUP2 DUP2 MSTORE PUSH1 0x20 ADD DUP3 DUP1 SLOAD PUSH2 0x3AF SWAP1 PUSH2 0x590 JUMP JUMPDEST DUP1 ISZERO PUSH2 0x3FC JUMPI DUP1 PUSH1 0x1F LT PUSH2 0x3D1 JUMPI PUSH2 0x100 DUP1 DUP4 SLOAD DIV MUL DUP4 MSTORE SWAP2 PUSH1 0x20 ADD SWAP2 PUSH2 0x3FC JUMP JUMPDEST DUP3 ADD SWAP2 SWAP1 PUSH1 0x0 MSTORE PUSH1 0x20 PUSH1 0x0 KECCAK256 SWAP1 JUMPDEST DUP2 SLOAD DUP2 MSTORE SWAP1 PUSH1 0x1 ADD SWAP1 PUSH1 0x20 ADD DUP1 DUP4 GT PUSH2 0x3DF JUMPI DUP3 SWAP1 SUB PUSH1 0x1F AND DUP3 ADD SWAP2 JUMPDEST POP POP POP POP POP SWAP1 POP DUP3 JUMP JUMPDEST PUSH1 0x0 DUP2 SWAP1 POP SWAP2 SWAP1 POP JUMP JUMPDEST PUSH2 0x419 DUP2 PUSH2 0x406 JUMP JUMPDEST DUP3 MSTORE POP POP JUMP JUMPDEST PUSH1 0x0 DUP2 MLOAD SWAP1 POP SWAP2 SWAP1 POP JUMP JUMPDEST PUSH1 0x0 DUP3 DUP3 MSTORE PUSH1 0x20 DUP3 ADD SWAP1 POP SWAP3 SWAP2 POP POP JUMP JUMPDEST PUSH1 0x0 JUMPDEST DUP4 DUP2 LT ISZERO PUSH2 0x459 JUMPI DUP1 DUP3 ADD MLOAD DUP2 DUP5 ADD MSTORE PUSH1 0x20 DUP2 ADD SWAP1 POP PUSH2 0x43E JUMP JUMPDEST DUP4 DUP2 GT ISZERO PUSH2 0x468 JUMPI PUSH1 0x0 DUP5 DUP5 ADD MSTORE JUMPDEST POP POP POP POP JUMP JUMPDEST PUSH1 0x0 PUSH1 0x1F NOT PUSH1 0x1F DUP4 ADD AND SWAP1 POP SWAP2 SWAP1 POP JUMP JUMPDEST PUSH1 0x0 PUSH2 0x48A DUP3 PUSH2 0x41F JUMP JUMPDEST PUSH2 0x494 DUP2 DUP6 PUSH2 0x42A JUMP JUMPDEST SWAP4 POP PUSH2 0x4A4 DUP2 DUP6 PUSH1 0x20 DUP7 ADD PUSH2 0x43B JUMP JUMPDEST PUSH2 0x4AD DUP2 PUSH2 0x46E JUMP JUMPDEST DUP5 ADD SWAP2 POP POP SWAP3 SWAP2 POP POP JUMP JUMPDEST PUSH1 0x0 PUSH1 0x40 DUP3 ADD SWAP1 POP PUSH2 0x4CD PUSH1 0x0 DUP4 ADD DUP6 PUSH2 0x410 JUMP JUMPDEST DUP2 DUP2 SUB PUSH1 0x20 DUP4 ADD MSTORE PUSH2 0x4DF DUP2 DUP5 PUSH2 0x47F JUMP JUMPDEST SWAP1 POP SWAP4 SWAP3 POP POP POP JUMP JUMPDEST PUSH1 0x0 PUSH1 0x20 DUP3 ADD SWAP1 POP PUSH2 0x4FD PUSH1 0x0 DUP4 ADD DUP5 PUSH2 0x410 JUMP JUMPDEST SWAP3 SWAP2 POP POP JUMP JUMPDEST PUSH1 0x0 DUP1 REVERT JUMPDEST PUSH2 0x511 DUP2 PUSH2 0x406 JUMP JUMPDEST DUP2 EQ PUSH2 0x51C JUMPI PUSH1 0x0 DUP1 REVERT JUMPDEST POP JUMP JUMPDEST PUSH1 0x0 DUP2 CALLDATALOAD SWAP1 POP PUSH2 0x52E DUP2 PUSH2 0x508 JUMP JUMPDEST SWAP3 SWAP2 POP POP JUMP JUMPDEST PUSH1 0x0 PUSH1 0x20 DUP3 DUP5 SUB SLT ISZERO PUSH2 0x54A JUMPI PUSH2 0x549 PUSH2 0x503 JUMP JUMPDEST JUMPDEST PUSH1 0x0 PUSH2 0x558 DUP5 DUP3 DUP6 ADD PUSH2 0x51F JUMP JUMPDEST SWAP2 POP POP SWAP3 SWAP2 POP POP JUMP JUMPDEST PUSH32 0x4E487B7100000000000000000000000000000000000000000000000000000000 PUSH1 0x0 MSTORE PUSH1 0x22 PUSH1 0x4 MSTORE PUSH1 0x24 PUSH1 0x0 REVERT JUMPDEST PUSH1 0x0 PUSH1 0x2 DUP3 DIV SWAP1 POP PUSH1 0x1 DUP3 AND DUP1 PUSH2 0x5A8 JUMPI PUSH1 0x7F DUP3 AND SWAP2 POP JUMPDEST PUSH1 0x20 DUP3 LT DUP2 EQ ISZERO PUSH2 0x5BC JUMPI PUSH2 0x5BB PUSH2 0x561 JUMP JUMPDEST JUMPDEST POP SWAP2 SWAP1 POP JUMP INVALID LOG2 PUSH5 0x6970667358 0x22 SLT KECCAK256 PUSH1 0x92 GAS 0xB2 0x24 0xFB 0x49 MUL 0xBC PUSH18 0xE6B9BEEC85907B8A10510647DBD62A8B25FB SWAP8 PUSH12 0x156364736F6C634300080800 CALLER "
				},
				"gasEstimates": {
					"creation": {
						"codeDepositCost": "305600",
						"executionCost": "infinite",
						"totalCost": "infinite"
					},
					"external": {
						"brothersFavoriteNumber()": "2451",
						"favoriteNumber()": "2496",
						"person1()": "infinite",
						"person2()": "infinite",
						"person3()": "infinite",
						"person4()": "infinite",
						"retrieve()": "2460",
						"store(uint256)": "22520"
					}
				},
				"methodIdentifiers": {
					"brothersFavoriteNumber()": "61efd9a7",
					"favoriteNumber()": "471f7cdf",
					"person1()": "46cb59c2",
					"person2()": "66993d66",
					"person3()": "20b2d87f",
					"person4()": "a210cf3f",
					"retrieve()": "2e64cec1",
					"store(uint256)": "6057361d"
				}
			},
			"storageLayout": {
				"storage": [
					{
						"astId": 3,
						"contract": "contracts/SimpleStorage.sol:SimpleStorage",
						"label": "favoriteNumber",
						"offset": 0,
						"slot": "0",
						"type": "t_uint256"
					},
					{
						"astId": 5,
						"contract": "contracts/SimpleStorage.sol:SimpleStorage",
						"label": "brothersFavoriteNumber",
						"offset": 0,
						"slot": "1",
						"type": "t_uint256"
					},
					{
						"astId": 12,
						"contract": "contracts/SimpleStorage.sol:SimpleStorage",
						"label": "person1",
						"offset": 0,
						"slot": "2",
						"type": "t_struct(People)38_storage"
					},
					{
						"astId": 19,
						"contract": "contracts/SimpleStorage.sol:SimpleStorage",
						"label": "person2",
						"offset": 0,
						"slot": "4",
						"type": "t_struct(People)38_storage"
					},
					{
						"astId": 26,
						"contract": "contracts/SimpleStorage.sol:SimpleStorage",
						"label": "person3",
						"offset": 0,
						"slot": "6",
						"type": "t_struct(People)38_storage"
					},
					{
						"astId": 33,
						"contract": "contracts/SimpleStorage.sol:SimpleStorage",
						"label": "person4",
						"offset": 0,
						"slot": "8",
						"type": "t_struct(People)38_storage"
					}
				],
				"types": {
					"t_string_storage": {
						"encoding": "bytes",
						"label": "string",
						"numberOfBytes": "32"
					},
					"t_struct(People)38_storage": {
						"encoding": "inplace",
						"label": "struct SimpleStorage.People",
						"members": [
							{
								"astId": 35,
								"contract": "contracts/SimpleStorage.sol:SimpleStorage",
								"label": "favoriteNumber",
								"offset": 0,
								"slot": "0",
								"type": "t_uint256"
							},
							{
								"astId": 37,
								"contract": "contracts/SimpleStorage.sol:SimpleStorage",
								"label": "name",
								"offset": 0,
								"slot": "1",
								"type": "t_string_storage"
							}
						],
						"numberOfBytes": "64"
					},
					"t_uint256": {
						"encoding": "inplace",
						"label": "uint256",
						"numberOfBytes": "32"
					}
				}
			},
			"userdoc": {
				"kind": "user",
				"methods": {},
				"version": 1
			}
		}
	}
}